8=FIX.4.2|9=99|35=A|34=1|49=MY-ACCEPTOR-SERVICE|52=20200415-07:14:50.731|56=MY-INITIATOR-CLIENT1|98=0|108=5|141=Y|10=004|8=FIX.4.2|9=82|35=0|34=2|49=MY-ACCEPTOR-SERVICE|52=20200415-07:14:55.883|56=MY-INITIATOR-CLIENT1|10=225|8=FIX.4.2|9=154|35=8|34=3|49=MY-ACCEPTOR-SERVICE|52=20200415-07:14:58.805|56=MY-INITIATOR-CLIENT1|6=0|11=456|14=0|17=789|20=0|31=0|32=0|37=133456|38=56|39=0|54=1|55=AJCB|10=236|8=FIX.4.2|9=82|35=0|34=4|49=MY-ACCEPTOR-SERVICE|52=20200415-07:15:03.883|56=MY-INITIATOR-CLIENT1|10=221|8=FIX.4.2|9=154|35=8|34=5|49=MY-ACCEPTOR-SERVICE|52=20200415-07:15:08.778|56=MY-INITIATOR-CLIENT1|6=0|11=456|14=0|17=789|20=0|31=0|32=0|37=133456|38=56|39=0|54=1|55=AJCB|10=243|